:060000000A128A110C280F
:10000800FE00030EF0000A08F1000A128A11922E6F
:100018000A128A110F28FA01FB0183120313E10166
:10002800E201E301E401E501E60183010A128A1114
:10003800322E8312031329088039B3002908AE0031
:100048002E07B900A81F29282A282B28391439086F
:1000580003192F2830283F28390A031D342835284A
:100068003D280030A9000030A8000030A70000306B
:10007800A600A81747280030A9000030A8000030C3
:10008800A7000030A6002D088039FF007F08B306BE
:100098002D08AE002E07B400AC1F5328542855284D
:1000A80034143408031959285A286928340A031DB6
:1000B8005E285F2867280030AD000030AC000030B3
:1000C800AB000030AA00AC1771280030AD0000303A
:1000D800AC000030AB000030AA00340803197528C2
:1000E80076287B283908031D7A287B288428003045
:1000F800A9000030A8000030A7000030A600612B3E
:100108002608F2002C080A128A1169260A128A1196
:10011800730883120313BF007208BE003E08AE00C6
:10012800AF01B001B1013108B8003008B7002F089D
:10013800B6002E08B5003F08AE00AF01B001B1010E
:100148003108BD003008BC002F08BB002E08BA00DB
:100158002708F2002B080A128A1169260A128A1146
:10016800730883120313BF007208BE003E08AE0076
:10017800AF01B001B1012E08B5072F08031103180C
:10018800013E0319C828B607300803110318013EB9
:100198000319CF28B707310803110318013E0319C3
:1001A800D628B8073F08AE00AF01B001B1012E084C
:1001B800BA072F0803110318013E0319E428BB07E7
:1001C800300803110318013E0319EB28BC07310856
:1001D80003110318013E0319F228BD072808F2008D
:1001E8002A080A128A1169260A128A1173088312C8
:1001F8000313BF007208BE003E08AE00AF01B00195
:10020800B1012E08B5072F0803110318013E031981
:100218000E29B607300803110318013E03191529E2
:10022800B707310803110318013E03191C29B80741
:100238003F08AE00AF01B001B1012E08BA072F0880
:1002480003110318013E03192A29BB0730080311BB
:100258000318013E03193129BC073108031103189B
:10026800013E03193829BD070830AE000310B50D4B
:10027800B60DB70DB80DAE0B3A292708F2002A08BB
:100288000A128A1169260A128A1173088312031343
:10029800BF007208BE003E08AE003F08AF00B001C4
:1002A800B1012E08B5072F0803110318013E0319E1
:1002B8005E29B607300803110318013E03196529A2
:1002C800B707310803110318013E03196C29B80751
:1002D8002608F2002B080A128A1169260A128A11C6
:1002E800730883120313BF007208BE003E08AE00F5
:1002F8003F08AF00B001B1012E08B5072F08031160
:100308000318013E03198929B60730080311031899
:10031800013E03199029B707310803110318013E5C
:1003280003199729B8070830AE000310B50DB60DAC
:10033800B70DB80DAE0B99292608F2002A080A1243
:100348008A1169260A128A11730883120313BF00DF
:100358007208BE003E08AE003F08AF00B001B10110
:100368002E08B5072F0803110318013E0319BD29EC
:10037800B607300803110318013E0319C429B7074B
:10038800310803110318013E0319CB29B8072708C0
:10039800F2002C080A128A1169260A128A117308B7
:1003A80083120313BF007208BE003E08AE003F0868
:1003B800AF00B001B1012E08BA072F0803110318C6
:1003C800013E0319E829BB07300803110318013E51
:1003D8000319EF29BC07310803110318013E03195B
:1003E800F629BD072808F2002B080A128A11692687
:1003F8000A128A11730883120313BF007208BE0021
:100408003E08AE003F08AF00B001B1012E08BA07A0
:100418002F0803110318013E0319132ABB073008DC
:1004280003110318013E03191A2ABC0731080311E6
:100438000318013E0319212ABD072808F2002C08D9
:100448000A128A1169260A128A1173088312031381
:10045800BF007208BE003E08AE003F08AF00B00102
:10046800B10108300310AE0DAF0DB00DB10DFF3E58
:10047800031D362A2E08BA072F0803110318013E58
:100488000319472ABB07300803110318013E031953
:100498004E2ABC07310803110318013E0319552AD7
:1004A800BD073508AE003608AF003708B000380879
:1004B800B10018300310B10CB00CAF0CAE0CFF3EFD
:1004C800031D5E2A2E08BA072F0803110318013EE0
:1004D80003196F2ABB07300803110318013E0319DB
:1004E800762ABC07310803110318013E03197D2A37
:1004F800BD070830AE000310B50DB60DB70DB80D29
:10050800AE0B7F2A39083407AE00AF01AF0D2E08B5
:10051800823EBE002F080318013EFF3EBF00B12AED
:100528000130AE000310BA0DBB0DBC0DBD0DAE0BF6
:10053800962AB81FA02AA12AA22A3A140130AE008E
:100548000310B50DB60DB70DB80DAE0BA42AFF30CC
:10055800BE070318BF0AFF30BF07BC1FB42AB52A5D
:10056800942AB401B81FB92ABA2AD62AFF30350509
:10057800AE00FF303605AF00FF303705B0007F30E2
:100588003805B100310830042F042E040319CD2A90
:10059800CE2AD12AB401B40AD62A3A1CD42AD52A9A
:1005A800D62ACE2A34080319DA2ADB2A0C2B013082
:1005B800BA07003003180130BB07003003180130B8
:1005C800BC07003003180130BD073D1CEC2AED2A9A
:1005D8000C2B3A08AE003B08AF003C08B0003D08C1
:1005E800B1000130B200310DB10CB00CAF0CAE0C43
:1005F800B20BF72A3108BD003008BC002F08BB0039
:100608002E08BA000130BE070318BF0A0030BF0722
:100618003F08803AFF0080307F02031D152BFF3012
:100628003E02031C182B192B242B7F308312031333
:10063800BD008030BC000030BB000030BA00552B34
:10064800831203133F08803AFF0080307F02031DA6
:100658002F2B01303E020318322B332B3F2B003057
:1006680083120313BD000030BC000030BB00003013
:10067800BA00B301552B831203133E08B900FF30AB
:10068800BA05FF30BB057F30BC050030BD05391CFD
:100698004E2B4F2B502BBC173908AE0003102E0CD5
:1006A800BD003308FF007F08BD043D08A9003C08D1
:1006B800A8003B08A7003A08A60008008312031305
:1006C80047088039D1004708C8004807D800C61F26
:1006D8006E2B6F2B702B581458080319742B752B1D
:1006E800852B580A031D792B7A2B822B0030C700E3
:1006F8000030C6000030C5000030C400C617C7016E
:100708008D2B0030C7000030C6000030C500003017
:10071800C40043088039FF007F08D1064308C80099
:100728004807D900C21F992B9A2B9B2B591459089B
:1007380003199F2BA02BB02B590A031DA42BA52B03
:10074800AD2B0030C3000030C2000030C1000030C3
:10075800C000C217C301B82B0030C3000030C2006C
:100768000030C1000030C000430842044104400486
:10077800031DBF2BC02BD92B0030C7000030C6008B
:100788000030C5000030C4008030C6047F30C70484
:100798005108FF007F08C7044708C3004608C20085
:1007A8004508C1004408C000302D5808031DDD2B42
:1007B800DE2BE72B0030C3000030C2000030C10040
:1007C8000030C000302D5808C800C9014908CB00C6
:1007D80059084802CA00031CCB034A087F3ED200CE
:1007E8004B080318013E003ED3004708D0004608D6
:1007F800CF004508CE004408CD000030C7000030C7
:10080800C6000030C5000030C4000030D7000030FA
:10081800D6000030D5000030D400D9015D2C59082D
:100828000319172C182C382C0130C8000310CD0DD3
:10083800CE0DCF0DD00DC80B1A2C0130C8000310F7
:10084800C40DC50DC60DC70DC80B232CD71F2D2CE5
:100858002E2C2F2C44140130C8000310D40DD50DB4
:10086800D60DD70DC80B312C43085002031D462C5A
:1008780042084F02031D462C41084E02031D462C18
:1008880040084D02031C492C4A2C592C5717400884
:10089800CD024108031C410FCE024208031C420F3F
:1008A800CF024308031C430FD0020130FF007F082A
:1008B800D9071A305902031C622C632C132C5008D8
:1008C8004F044E044D0403196A2C6B2C8A2C5414C3
:1008D8008A2C0130C8000310C40DC50DC60DC70D04
:1008E800C80B6F2CD71F792C7A2C7B2C4414013021
:1008F800C8000310D40DD50DD60DD70DC80B7D2C0F
:10090800FF30D2070318D30AFF30D307C61F8D2C38
:100918008E2C6D2CD901D71F922C932CAF2CFF3025
:100928005405C800FF305505C900FF305605CA00F8
:100938007F305705CB004B084A0449044804031983
:10094800A62CA72CAA2CD901D90AAF2C441CAD2C53
:10095800AE2CAF2CA72C59080319B32CB42CE52CBA
:100968000130C407003003180130C50700300318F0
:100978000130C607003003180130C707471CC52CD3
:10098800C62CE52C4408C8004508C9004608CA001A
:100998004708CB000130CC004B0DCB0CCA0CC90C5E
:1009A800C80CCC0BD02C4B08C7004A08C600490815
:1009B800C5004808C4000130D2070318D30A003024
:1009C800D3075308803AFF0080307F02031DEE2CC6
:1009D800FF305202031CF12CF22C002DFF30831241
:1009E8000313D2000030D3000030C7000030C60027
:1009F8000030C5000030C400831203135308803A46
:100A0800FF0080307F02031D0B2D013052020318B6
:100A18000E2D0F2D1C2D83120313D201D30100308C
:100A2800C7000030C6000030C5000030C400D10146
:100A3800831203135208D800581C232D242D262D69
:100A4800C6172A2D7F30FF007F08C6055808C80042
:100A58000310480CC700CC2B080083120313A00016
:100A680020080319382D392D4D2DF51F3C2D3D2D0E
:100A78004D2D7209A2007309A3007409A400750919
:100A8800A500A20A0319A30A0319A40A0319A50AAF
:100A9800552D7508A5007408A4007308A3007208F2
:100AA800A2007508740473047204031D5C2D5D2D87
:100AB800662D0030F5000030F4000030F3000030FF
:100AC800F200EA2D9630A100762D0130FF007F0854
:100AD800A10701300310A50CA40CA30CA20CFF3E27
:100AE800031D6E2DFE302505031D7B2D7C2D692DE4
:100AF800982D0130FF007F08A1070130A2070030C0
:100B080003180130A307003003180130A407003090
:100B180003180130A50701300310A50CA40CA30C81
:100B2800A20CFF3E031D902DFF302505031D9D2DB2
:100B38009E2D7D2DAA2D0130A1020130F600031053
:100B4800A20DA30DA40DA50DF60BA32DA41BAD2D71
:100B5800AE2DB42D023021020318B32DB42D9F2DD4
:100B68002118B72DB82DC02DFF30A205FF30A305E1
:100B78007F30A405FF30A5050310A10C2108F6005D
:100B8800F701F801F90118300310F60DF70DF80D0B
:100B9800F90DFF3E031DC82D7608A2047708A304AB
:100BA8007808A4047908A50420080319DC2DDD2D94
:100BB800E22DF51FE02DE12DE22DA5172508F50002
:100BC8002408F4002308F3002208F200080040304B
:100BD80083120313C3000030C2000030C10000308C
:100BE800C0003D30A9000C30A8007E30A700283096
:100BF800A6005A08F2005B08F300F401F501003082
:100C08000A128A1131250A128A11750883120313F0
:100C1800AD007408AC007308AB007208AA000A1291
:100C28008A111D200A128A11831203132908C7008A
:100C38002808C6002708C5002608C4000A128A1119
:100C480062230A128A11831203134308DD00420843
:100C5800DC004108DB004008DA0008000230831697
:100C6800031386008312031386010B168B170130BA
:100C780090000A128A11B1260A128A1183120313EC
:100C8800610862040319492E4A2E422E6608DB00C9
:100C98006508DA000A128A11EB250A128A118312F2
:100CA8000313E101E201063083120313E00013305D
:100CB800DF00AD30DE00DE0B5F2EDF0B5F2EE00BBA
:100CC8005F2E3D2E0A128A110C2883120313A400EA
:100CD800A001A1017208F400F5017408A2007508CA
:100CE800A300241C782E792E7F2E2208A007031833
:100CF800A10A2308A10701300310A20DA30DFF3E8E
:100D0800031D802E0310A40C2408031D8C2E8D2E89
:100D1800752E2108F3002008F20008008B1C952E80
:100D2800962EAA2E83120313861C9B2E9C2EA02E71
:100D38008E018F011014A92E10100F08E6000E085E
:100D4800E5000130E1000030E2008B1071088A00F4
:100D5800700E8300FE0E7E0E090083120313061523
:100D68000330F200F20BB62E8312031306110800AB
:02400E003D3F34
:00000001FF
